:100000000C945C000C9479000C9479000C947900A9
:100010000C9479000C9479000C9479000C9479007C
:100020000C9479000C9479000C9479000C9479006C
:100030000C9479000C9479000C9479000C9479005C
:100040000C9464010C9479000C9479000C94790060
:100050000C9479000C9479000C9479000C9479003C
:100060000C9479000C947900000000080002010053
:100070000003040700000000000000000102040863
:100080001020408001020408102001020408102002
:10009000040404040404040402020202020203032E
:1000A0000303030300000000250028002B000000CC
:1000B0000000240027002A0011241FBECFEFD8E043
:1000C000DEBFCDBF11E0A0E0B1E0E4E3F6E002C0A6
:1000D00005900D92A239B107D9F721E0A2E9B1E06C
:1000E00001C01D92A13AB207E1F70E9455010C949C
:1000F00018030C940000809193010E944002909399
:1001000097018093960120910001213049F018F069
:100110002230A1F00895883C91059CF481E00BC049
:100120008D3221E092071CF0109200010895843670
:1001300091053CF482E0809300010895893C91058B
:100140006CF70895CF93DF93C82FD0E0CC0FDD1F5D
:10015000CF5FDE4F60E088810E94860260E0898187
:10016000DF91CF910C948602CF93C82F8091940198
:100170000E94A200C0939401CF910895CF93C82FFD
:10018000809195010E94A200C0939501CF9108959E
:10019000CF93C0E061E08C2F0E94860261E08C2F3B
:1001A0000E94BF02CF5FCA30A9F780E00E94BE0064
:1001B00081E0CF910C94B400CF93DF93C82FD0E0AF
:1001C000CC0FDD1FCF5FDE4F61E088810E94860289
:1001D00061E08981DF91CF910C9486028091920138
:1001E0008823E9F0809194010E94A20060910001AF
:1001F00070E080E090E00E94DD01809195010E9416
:10020000DC00E0919501F0E0EE0FFF1FEF5FFE4F85
:1002100061E080810E94BF02E09195011CC0809145
:1002200095010E94A2006091000170E080E090E0E2
:100230000E94DD01809194010E94DC00E091940114
:10024000F0E0EE0FFF1FEF5FFE4F61E080810E9444
:10025000BF02E0919401F0E0EE0FFF1FEF5FFE4F51
:1002600060E081810E94BF028091920191E0892724
:100270008093920108950E947B000E94EE000E94EC
:10028000AE0120ED37E040E050E00E94F60220FD94
:1002900005C082E00E94B40081E004C080E00E94BA
:1002A000B40083E00C94BE0008950E9405020E94F1
:1002B00054010E94C800C0E0D0E00E943B0120979A
:1002C000E1F30E940000F9CF1F920F920FB60F9238
:1002D00011242F933F938F939F93AF93BF9380915C
:1002E000990190919A01A0919B01B0919C0130914C
:1002F000980123E0230F2D3720F40196A11DB11D95
:1003000005C026E8230F0296A11DB11D2093980178
:100310008093990190939A01A0939B01B0939C01C3
:1003200080919D0190919E01A0919F01B091A001AB
:100330000196A11DB11D80939D0190939E01A093F4
:100340009F01B093A001BF91AF919F918F913F9179
:100350002F910F900FBE0F901F9018952FB7F89404
:100360006091990170919A0180919B0190919C01FB
:100370002FBF08953FB7F89480919D0190919E0101
:10038000A0919F01B091A00126B5A89B05C02F3F69
:1003900019F00196A11DB11D3FBF6627782F892F47
:1003A0009A2F620F711D811D911D42E0660F771F0C
:1003B000881F991F4A95D1F70895CF92DF92EF9247
:1003C000FF92CF93DF936B017C010E94BA01EB0196
:1003D000C114D104E104F10489F00E94F5020E94E5
:1003E000BA016C1B7D0B683E734090F381E0C81A24
:1003F000D108E108F108C851DC4FEACFDF91CF9175
:10040000FF90EF90DF90CF900895789484B582604C
:1004100084BD84B5816084BD85B5826085BD85B5A8
:10042000816085BDEEE6F0E0808181608083E1E857
:10043000F0E010828081826080838081816080838F
:10044000E0E8F0E0808181608083E1EBF0E0808192
:1004500084608083E0EBF0E0808181608083EAE764
:10046000F0E08081846080838081826080838081ED
:10047000816080838081806880831092C1000895AC
:100480008E3008F08E5087702091910190E4299F62
:1004900090011124822B80937C0080917A008064EB
:1004A00080937A0080917A0086FDFCCF809178005D
:1004B0002091790090E0922B0895833081F028F408
:1004C000813099F08230A1F008958730A9F088300A
:1004D000B9F08430D1F4809180008F7D03C0809189
:1004E00080008F7780938000089584B58F7702C055
:1004F00084B58F7D84BD08958091B0008F7703C04F
:100500008091B0008F7D8093B0000895CF93DF93EA
:1005100090E0FC01E458FF4F2491FC01E057FF4FAD
:100520008491882349F190E0880F991FFC01E255DE
:10053000FF4FA591B4918C559F4FFC01C591D4916B
:100540009FB7611108C0F8948C91209582238C93F9
:10055000888182230AC0623051F4F8948C91322F42
:10056000309583238C938881822B888304C0F894F0
:100570008C91822B8C939FBFDF91CF9108950F9325
:100580001F93CF93DF931F92CDB7DEB7282F30E0B4
:10059000F901E859FF4F8491F901E458FF4F149194
:1005A000F901E057FF4F04910023C9F0882321F09F
:1005B00069830E945D026981E02FF0E0EE0FFF1F6A
:1005C000EC55FF4FA591B4919FB7F8948C916111B0
:1005D00003C01095812301C0812B8C939FBF0F9086
:1005E000DF91CF911F910F9108950895A1E21A2EE6
:1005F000AA1BBB1BFD010DC0AA1FBB1FEE1FFF1FC7
:10060000A217B307E407F50720F0A21BB30BE40B16
:10061000F50B661F771F881F991F1A9469F760955D
:100620007095809590959B01AC01BD01CF01089517
:04063000F894FFCF6C
:100634000107080807070909070000000000000077
:1006440000000000000000000000000000000000A6
:100654000000000000000000000000000000000096
:100664000000000000000000000000000000000086
:100674000000000000000000000000000000000076
:100684000000000000000000000000000000000066
:100694000000000000000000000000000000000056
:1006A4000000000000000000000000000000000046
:1006B4000000000000000000000000000000000036
:0206C400000133
:00000001FF
