:100000000C9461000C947E000C947E000C947E0095
:100010000C947E000C947E000C947E000C947E0068
:100020000C947E000C947E000C947E000C947E0058
:100030000C947E000C947E000C947E000C947E0048
:100040000C94CA010C947E000C947E000C947E00EB
:100050000C947E000C947E000C947E000C947E0028
:100060000C947E000C947E00000000080002010049
:100070000003040700000000000000000102040863
:100080001020408001020408102001020408102002
:10009000040404040404040402020202020203032E
:1000A00003030303000000002300260029000000D2
:1000B0000000250028002B0000000000240027007D
:1000C0002A0011241FBECFEFD8E0DEBFCDBF11E064
:1000D000A0E0B1E0E2EAF7E002C005900D92A2399B
:1000E000B107D9F721E0A2E9B1E001C01D92A33A1E
:1000F000B207E1F70E94BB010C94CF030C940000FF
:1001000060E08CE00E94EC0260E08BE00C94EC027A
:100110008091970190E001966CE370E00E94850366
:100120008093970108958091960190E001966CE08C
:1001300070E00E948503809396010895CF93DF932A
:100140008CE00E945B03C82F8BE00E945B03D82FDA
:1001500080919301811107C0C13029F40E94880069
:10016000C093930104C0C11102C010929301809109
:100170009201811107C0D13029F40E949300D093DD
:10018000920104C0D11102C010929201DF91CF916F
:10019000089580E00E94A602E09194014E2F50E065
:1001A000ED3088F42FE030E0241B350BF2E3F29FB2
:1001B000B001F39F700D11248617970714F4EF5FB9
:1001C00010C0EE2381F020E130E0241B350B62E308
:1001D000629FA001639F500D1124481759071CF41A
:1001E000E150E09394010895CF93DF93C82FD0E0BE
:1001F000CC0FDD1FCF5FDE4F888160E08F5F0E94F4
:10020000EC02898160E08F5FDF91CF910C94EC026A
:10021000CF93C82F80919901C81721F00E94F40054
:10022000C0939901CF910895CF93CCE3C80F8091EB
:100230009801C81721F00E94F400C0939801CF9153
:100240000895CF92DF92EF92FF92CF930E94140213
:100250006B017C0120E83EEE46E350E00E949903EA
:1002600080919601280F311D411D511DCA01B90110
:100270002CE030E040E050E00E949903C62FC70117
:10028000B60120E63AEE40E050E00E9499038091EA
:100290009701280F311D411D511DCA01B9012CE3E1
:1002A00030E040E050E00E949903862F0E94080150
:1002B0008C2FCF91FF90EF90DF90CF900C94140192
:1002C000CF93DF93C82FD0E0CC0FDD1FCF5FDE4F81
:1002D000888161E08F5F0E94EC02898161E08F5F1D
:1002E000DF91CF910C94EC02CF93DF93C82F0E9443
:1002F0006001D0E0CC0FDD1FCF5FDE4F888161E071
:100300008F5F0E942503898160E08F5FDF91CF912D
:100310000C94250380919501882371F080919801B8
:100320000E94F4006091940170E080E090E00E94EF
:100330004302809199010DC0809199010E94F400BF
:100340006091940170E080E090E00E94430280910F
:1003500098010E9474018091950191E08927809312
:10036000950108950E9421010E94C9000E948A01FE
:100370000C949E0008950E946B020E94BA010E9494
:100380008000C0E0D0E00E94B2012097E1F30E941B
:100390000000F9CF1F920F920FB60F9211242F93E6
:1003A0003F938F939F93AF93BF9380919B019091C5
:1003B0009C01A0919D01B0919E0130919A0123E092
:1003C000230F2D3720F40196A11DB11D05C026E88D
:1003D000230F0296A11DB11D20939A0180939B01CA
:1003E00090939C01A0939D01B0939E0180919F01E9
:1003F0009091A001A091A101B091A2010196A11D2F
:10040000B11D80939F019093A001A093A101B0938F
:10041000A201BF91AF919F918F913F912F910F902A
:100420000FBE0F901F9018952FB7F89460919B0105
:1004300070919C0180919D0190919E012FBF089524
:100440003FB7F89480919F019091A001A091A101E4
:10045000B091A20126B5A89B05C02F3F19F00196C7
:10046000A11DB11D3FBF6627782F892F9A2F620FDC
:10047000711D811D911D42E0660F771F881F991F16
:100480004A95D1F70895CF92DF92EF92FF92CF93E2
:10049000DF936B017C010E942002EB01C114D104A7
:1004A000E104F10489F00E9484030E9420026C1B85
:1004B0007D0B683E734090F381E0C81AD108E108D3
:1004C000F108C851DC4FEACFDF91CF91FF90EF9058
:1004D000DF90CF900895789484B5826084BD84B510
:1004E000816084BD85B5826085BD85B5816085BD2F
:1004F000EEE6F0E0808181608083E1E8F0E0108248
:10050000808182608083808181608083E0E8F0E088
:10051000808181608083E1EBF0E080818460808372
:10052000E0EBF0E0808181608083EAE7F0E08081A9
:100530008460808380818260808380818160808309
:100540008081806880831092C10008958E3008F009
:100550008E5087702091000190E4299F9001112412
:10056000822B80937C0080917A00806480937A0053
:1005700080917A0086FDFCCF8091780020917900EF
:1005800090E0922B0895833081F028F4813099F027
:100590008230A1F008958730A9F08830B9F0843016
:1005A000D1F4809180008F7D03C0809180008F778F
:1005B00080938000089584B58F7702C084B58F7DC5
:1005C00084BD08958091B0008F7703C08091B00002
:1005D0008F7D8093B0000895CF93DF9390E0FC016E
:1005E000E458FF4F2491FC01E057FF4F849188238A
:1005F00049F190E0880F991FFC01E854FF4FA59145
:10060000B49182559F4FFC01C591D4919FB7611160
:1006100008C0F8948C91209582238C938881822342
:100620000AC0623051F4F8948C91322F30958323B4
:100630008C938881822B888304C0F8948C91822BC0
:100640008C939FBFDF91CF9108950F931F93CF930A
:10065000DF931F92CDB7DEB7282F30E0F901E859BC
:10066000FF4F8491F901E458FF4F1491F901E057CD
:10067000FF4F04910023C9F0882321F069830E9471
:10068000C3026981E02FF0E0EE0FFF1FE255FF4F3C
:10069000A591B4919FB7F8948C91611103C0109506
:1006A000812301C0812B8C939FBF0F90DF91CF914D
:1006B0001F910F910895CF93DF93282F30E0F90118
:1006C000E859FF4F8491F901E458FF4FD491F901A3
:1006D000E057FF4FC491CC2391F081110E94C302D7
:1006E000EC2FF0E0EE0FFF1FEC55FF4FA591B491FA
:1006F0002C912D2381E090E021F480E002C080E085
:1007000090E0DF91CF910895089597FB072E16F49E
:10071000009407D077FD09D00E94BB0307FC05D0E9
:100720003EF4909581959F4F0895709561957F4F08
:100730000895A1E21A2EAA1BBB1BFD010DC0AA1F22
:10074000BB1FEE1FFF1FA217B307E407F50720F03A
:10075000A21BB30BE40BF50B661F771F881F991FB5
:100760001A9469F760957095809590959B01AC01FE
:10077000BD01CF010895AA1BBB1B51E107C0AA1FF1
:10078000BB1FA617B70710F0A61BB70B881F991F32
:100790005A95A9F780959095BC01CD010895F894DC
:0207A000FFCF89
:1007A2000108040102020103020203030404030517
:1007B20004040505060605070606070708080709D3
:1007C20008080909070709050707050503030501C5
:1007D20003030101040401070404070702020704DA
:1007E20002020404060604080606080805050802B3
:1007F200050502020909020609090606030306099C
:10080200030309090505090105050101060601029F
:100812000606020208080204080409070101070784
:100822000303070803030808010108090101090974
:020832000400C0
:00000001FF
