:100000000C945C000C9479000C9479000C947900A9
:100010000C9479000C9479000C9479000C9479007C
:100020000C9479000C9479000C9479000C9479006C
:100030000C9479000C9479000C9479000C9479005C
:100040000C943B010C9479000C9479000C94790089
:100050000C9479000C9479000C9479000C9479003C
:100060000C9479000C947900000000080002010053
:100070000003040700000000000000000102040863
:100080001020408001020408102001020408102002
:10009000040404040404040402020202020203032E
:1000A0000303030300000000250028002B000000CC
:1000B0000000240027002A0011241FBECFEFD8E043
:1000C000DEBFCDBF11E0A0E0B1E0E2EEF5E002C09E
:1000D00005900D92A239B107D9F721E0A2E9B1E06C
:1000E00001C01D92AF39B207E1F70E942C010C94B8
:1000F000EF020C940000089580E00E941702209106
:100100009201213049F018F02230A1F00895883C86
:1001100091059CF481E00BC08D3221E092071CF028
:10012000109292010895843691053CF482E0809308
:1001300092010895893C91056CF70895CF93DF9360
:10014000C82FD0E0CC0FDD1FC050DF4F60E08881AA
:100150000E945D0260E08981DF91CF910C945D0285
:10016000CF93C82F809194010E949E00C093940168
:10017000CF910895CF93C82F809195010E949E0042
:10018000C0939501CF910895CF93DF93C82FD0E00E
:10019000CC0FDD1FC050DF4F61E088810E945D02FF
:1001A00061E08981DF91CF910C945D02CF93DF9361
:1001B000C82F0E94C400D0E0CC0FDD1FC050DF4F1D
:1001C00061E088810E94960260E08981DF91CF9191
:1001D0000C94960280919301882371F0809195018F
:1001E0000E949E006091920170E080E090E00E9489
:1001F000B401809194010DC0809194010E949E00F1
:100200006091920170E080E090E00E94B4018091E2
:1002100095010E94D6008091930191E089278093F7
:10022000930108950E947C000E94EA000E948501CB
:1002300020ED37E040E050E00E94CD0220FD05C0F7
:1002400082E00E94B00081E004C080E00E94B00023
:1002500083E00C94BA0008950E94DC010E942B01F7
:100260000E947B00C0E0D0E00E9412012097E1F3E1
:100270000E940000F9CF1F920F920FB60F92112427
:100280002F933F938F939F93AF93BF938091970149
:1002900090919801A0919901B0919A0130919601A5
:1002A00023E0230F2D3720F40196A11DB11D05C0B9
:1002B00026E8230F0296A11DB11D2093960180937D
:1002C000970190939801A0939901B0939A0180911E
:1002D0009B0190919C01A0919D01B0919E0101967E
:1002E000A11DB11D80939B0190939C01A0939D0142
:1002F000B0939E01BF91AF919F918F913F912F91AC
:100300000F900FBE0F901F9018952FB7F894609123
:100310009701709198018091990190919A012FBF56
:1003200008953FB7F89480919B0190919C01A09112
:100330009D01B0919E0126B5A89B05C02F3F19F0E5
:100340000196A11DB11D3FBF6627782F892F9A2FD7
:10035000620F711D811D911D42E0660F771F881F7E
:10036000991F4A95D1F70895CF92DF92EF92FF92AD
:10037000CF93DF936B017C010E949101EB01C114CB
:10038000D104E104F10489F00E94CC020E949101A1
:100390006C1B7D0B683E734090F381E0C81AD10856
:1003A000E108F108C851DC4FEACFDF91CF91FF900F
:1003B000EF90DF90CF900895789484B5826084BDEB
:1003C00084B5816084BD85B5826085BD85B5816059
:1003D00085BDEEE6F0E0808181608083E1E8F0E0B9
:1003E0001082808182608083808181608083E0E8E8
:1003F000F0E0808181608083E1EBF0E080818460C7
:100400008083E0EBF0E0808181608083EAE7F0E0C8
:10041000808184608083808182608083808181602C
:1004200080838081806880831092C10008958E301F
:1004300008F08E5087702091900190E4299F9001E0
:100440001124822B80937C0080917A0080648093B9
:100450007A0080917A0086FDFCCF8091780020910F
:10046000790090E0922B0895833081F028F4813058
:1004700099F08230A1F008958730A9F08830B9F062
:100480008430D1F4809180008F7D03C08091800002
:100490008F7780938000089584B58F7702C084B5EC
:1004A0008F7D84BD08958091B0008F7703C08091C7
:1004B000B0008F7D8093B0000895CF93DF9390E0DC
:1004C000FC01E458FF4F2491FC01E057FF4F849159
:1004D000882349F190E0880F991FFC01E255FF4FF6
:1004E000A591B4918C559F4FFC01C591D4919FB7B4
:1004F000611108C0F8948C91209582238C93888197
:1005000082230AC0623051F4F8948C91322F3095D6
:1005100083238C938881822B888304C0F8948C91E8
:10052000822B8C939FBFDF91CF9108950F931F93E0
:10053000CF93DF931F92CDB7DEB7282F30E0F901BC
:10054000E859FF4F8491F901E458FF4F1491F901E4
:10055000E057FF4F04910023C9F0882321F06983FD
:100560000E9434026981E02FF0E0EE0FFF1FEC558E
:10057000FF4FA591B4919FB7F8948C91611103C07E
:100580001095812301C0812B8C939FBF0F90DF9129
:10059000CF911F910F9108950895A1E21A2EAA1BE1
:1005A000BB1BFD010DC0AA1FBB1FEE1FFF1FA21723
:1005B000B307E407F50720F0A21BB30BE40BF50B20
:1005C000661F771F881F991F1A9469F760957095A9
:1005D000809590959B01AC01BD01CF010895F894E1
:0205E000FFCF4B
:1005E20007080807070909070000000000000000CB
:1005F20000000000000000000000000000000000F9
:1006020000000000000000000000000000000000E8
:1006120000000000000000000000000000000000D8
:1006220000000000000000000000000000000000C8
:1006320000000000000000000000000000000000B8
:1006420000000000000000000000000000000000A8
:100652000000000000000000000000000000000098
:100662000000000000000000000000000000000088
:02067200010085
:00000001FF
