:100000000C945C000C9479000C9479000C947900A9
:100010000C9479000C9479000C9479000C9479007C
:100020000C9479000C9479000C9479000C9479006C
:100030000C9479000C9479000C9479000C9479005C
:100040000C9448010C9479000C9479000C9479007C
:100050000C9479000C9479000C9479000C9479003C
:100060000C9479000C947900000000080002010053
:100070000003040700000000000000000102040863
:100080001020408001020408102001020408102002
:10009000040404040404040402020202020203032E
:1000A0000303030300000000250028002B000000CC
:1000B0000000240027002A0011241FBECFEFD8E043
:1000C000DEBFCDBF11E0A0E0B1E0E2ECF5E002C0A0
:1000D00005900D92A239B107D9F721E0A2E9B1E06C
:1000E00001C01D92A03AB207E1F70E9439010C94B9
:1000F000DF020C94000060E08CE00C944D02CF9382
:10010000DF93C82FD0E0CC0FDD1FCF5FDE4F60E064
:1001100088810E944D0260E08981DF91CF910C942B
:100120004D02CF93C82F80919601C81721F00E94ED
:100130007F00C0939601CF910895845C90919501C2
:10014000891302C00C947F00809395010895CF928B
:10015000DF92EF92FF92CF930E9492016B017C019C
:1001600020E335E740E050E00E94BD02809193011A
:10017000280F311D411D511DCA01B9012CE030E08D
:1001800040E050E00E94BD02C62FC701B60124EF37
:1001900031E040E050E00E94BD0280919401280FC0
:1001A000311D411D511DCA01B9012CE330E040E071
:1001B00050E00E94BD02862F0E9491008C2FCF91AB
:1001C000FF90EF90DF90CF900C949D00CF93DF9342
:1001D000C82FD0E0CC0FDD1FCF5FDE4F61E08881FC
:1001E0000E944D0261E08981DF91CF910C944D0214
:1001F000CF93DF93C82F0E94E600D0E0CC0FDD1F25
:10020000CF5FDE4F61E088810E94860260E08981D5
:10021000DF91CF910C94860280919201882371F036
:10022000809195010E947F006091000170E080E064
:1002300090E00E94C101809196010DC080919601CD
:100240000E947F006091000170E080E090E00E94D9
:10025000C101809195010E94F8008091920191E086
:1002600089278093920108950E94A7000C940C01A5
:1002700008950E94E9010E9438010E947B00C0E0BD
:10028000D0E00E9434012097E1F30E940000F9CFF2
:100290001F920F920FB60F9211242F933F938F93BB
:1002A0009F93AF93BF938091980190919901A091F2
:1002B0009A01B0919B013091970123E0230F2D37D4
:1002C00020F40196A11DB11D05C026E8230F02965A
:1002D000A11DB11D209397018093980190939901DE
:1002E000A0939A01B0939B0180919C0190919D01F4
:1002F000A0919E01B0919F010196A11DB11D809317
:100300009C0190939D01A0939E01B0939F01BF918A
:10031000AF919F918F913F912F910F900FBE0F90B2
:100320001F9018952FB7F8946091980170919901DA
:1003300080919A0190919B012FBF08953FB7F89447
:1003400080919C0190919D01A0919E01B0919F018F
:1003500026B5A89B05C02F3F19F00196A11DB11D20
:100360003FBF6627782F892F9A2F620F711D811D3D
:10037000911D42E0660F771F881F991F4A95D1F79C
:100380000895CF92DF92EF92FF92CF93DF936B01AC
:100390007C010E949E01EB01C114D104E104F1042F
:1003A00089F00E94BC020E949E016C1B7D0B683E7E
:1003B000734090F381E0C81AD108E108F108C851F0
:1003C000DC4FEACFDF91CF91FF90EF90DF90CF909D
:1003D0000895789484B5826084BD84B5816084BDBD
:1003E00085B5826085BD85B5816085BDEEE6F0E0AE
:1003F000808181608083E1E8F0E01082808182600A
:100400008083808181608083E0E8F0E0808181608A
:100410008083E1EBF0E0808184608083E0EBF0E0BA
:10042000808181608083EAE7F0E08081846080835E
:100430008081826080838081816080838081806808
:1004400080831092C1000895833081F028F48130B8
:1004500099F08230A1F008958730A9F08830B9F082
:100460008430D1F4809180008F7D03C08091800022
:100470008F7780938000089584B58F7702C084B50C
:100480008F7D84BD08958091B0008F7703C08091E7
:10049000B0008F7D8093B0000895CF93DF9390E0FC
:1004A000FC01E458FF4F2491FC01E057FF4F849179
:1004B000882349F190E0880F991FFC01E255FF4F16
:1004C000A591B4918C559F4FFC01C591D4919FB7D4
:1004D000611108C0F8948C91209582238C938881B7
:1004E00082230AC0623051F4F8948C91322F3095F7
:1004F00083238C938881822B888304C0F8948C9109
:10050000822B8C939FBFDF91CF9108950F931F9300
:10051000CF93DF931F92CDB7DEB7282F30E0F901DC
:10052000E859FF4F8491F901E458FF4F1491F90104
:10053000E057FF4F04910023C9F0882321F069831D
:100540000E9424026981E02FF0E0EE0FFF1FEC55BE
:10055000FF4FA591B4919FB7F8948C91611103C09E
:100560001095812301C0812B8C939FBF0F90DF9149
:10057000CF911F910F9108950895A1E21A2EAA1B01
:10058000BB1BFD010DC0AA1FBB1FEE1FFF1FA21743
:10059000B307E407F50720F0A21BB30BE40BF50B40
:1005A000661F771F881F991F1A9469F760957095C9
:1005B000809590959B01AC01BD01CF010895F89401
:0205C000FFCF6B
:1005C2000F010202010302020303040403050404EF
:1005D20005050606050706060707080807090808AD
:1005E20009090707090507070505030305010303B1
:1005F20001010404010704040707020207040202BE
:10060200040406060408060608080505080205058E
:100612000202090902060909060603030609030381
:10062200090905050901050501010606010206067B
:10063200020208080204080804070101070703036D
:100642000708030308080101080901010909040454
:0206520009009D
:00000001FF
