:100000000C9461000C947E000C947E000C947E0095
:100010000C947E000C947E000C947E000C947E0068
:100020000C947E000C947E000C947E000C947E0058
:100030000C947E000C947E000C947E000C947E0048
:100040000C94B8010C947E000C947E000C947E00FD
:100050000C947E000C947E000C947E000C947E0028
:100060000C947E000C947E00000000080002010049
:100070000003040700000000000000000102040863
:100080001020408001020408102001020408102002
:10009000040404040404040402020202020203032E
:1000A00003030303000000002300260029000000D2
:1000B0000000250028002B0000000000240027007D
:1000C0002A0011241FBECFEFD8E0DEBFCDBF11E064
:1000D000A0E0B1E0EEE7F7E002C005900D92A23992
:1000E000B107D9F721E0A2E9B1E001C01D92A23A1F
:1000F000B207E1F70E94A9010C94BD030C94000023
:1001000060E08CE00E94DA0260E08BE00C94DA029E
:1001100080E00E949402E09194014E2F50E0ED3077
:1001200088F42FE030E0241B350BF2E3F29FB0019E
:10013000F39F700D11248617970714F4EF5F10C01A
:10014000EE2381F020E130E0241B350B62E3629F57
:10015000A001639F500D1124481759071CF4E1506A
:10016000E0939401089561E08F5F0C94130360E0C5
:100170008F5F0C94130360E08F5F0C94DA02E091C0
:100180009801F0E0EE0FFF1FE75EFE4F81810E94B5
:10019000BB00E0919801F0E0EE0FFF1FE75EFE4F1D
:1001A00080810C94BB00E0919701F0E0EE0FFF1FFF
:1001B000EF5FFE4F81810E94BB00E0919701F0E06C
:1001C000EE0FFF1FEF5FFE4F80810C94BB000E947B
:1001D000D3008091970190E001966CE070E00E945E
:1001E00073038093970108950E94BF008091980146
:1001F00090E001966CE370E00E9473038093980195
:10020000892B11F40C94E7000895CF93DF931F928C
:10021000CDB7DEB70E94020220E63AEE40E050E0A1
:100220000E948703CA01B9012CE330E040E050E0AE
:100230000E94870380919601861731F069830E949E
:10024000F4006981609396010F90DF91CF9108953A
:10025000CF93DF938CE00E944903C82F8BE00E946C
:100260004903D82F80919301811107C0C13029F42F
:100270000E94F400C093930104C0C11102C0109207
:10028000930180919201811107C0D13029F40E941D
:10029000E700D093920104C0D11102C010929201E4
:1002A000DF91CF91089561E08F5F0C94DA02CF93D4
:1002B000DF93D82FC62F0E9453018C2F0E94530129
:1002C0008D2F0E94B3008C2FDF91CF910C94B7003B
:1002D000E0919801F0E0EE0FFF1FE75EFE4F6181B5
:1002E00080810C945701E0919701F0E0EE0FFF1F21
:1002F000EF5FFE4F618180810C94570180919501E1
:10030000882361F00E94D3006091940170E080E046
:1003100090E00E9431020E9468010BC00E94BF0061
:100320006091940170E080E090E00E9431020E94B0
:1003300073018091950191E089278093950108953B
:100340000E9405010E9488000E947E010C942801F1
:1003500008950E9459020E94A8010E948000C0E0F6
:10036000D0E00E94A0012097E1F30E940000F9CFA5
:100370001F920F920FB60F9211242F933F938F93DA
:100380009F93AF93BF9380919A0190919B01A0910D
:100390009C01B0919D013091990123E0230F2D37ED
:1003A00020F40196A11DB11D05C026E8230F029679
:1003B000A11DB11D2093990180939A0190939B01F7
:1003C000A0939C01B0939D0180919E0190919F010B
:1003D000A091A001B091A1010196A11DB11D809332
:1003E0009E0190939F01A093A001B093A101BF91A2
:1003F000AF919F918F913F912F910F900FBE0F90D2
:100400001F9018952FB7F89460919A0170919B01F5
:1004100080919C0190919D012FBF08953FB7F89462
:1004200080919E0190919F01A091A001B091A101A6
:1004300026B5A89B05C02F3F19F00196A11DB11D3F
:100440003FBF6627782F892F9A2F620F711D811D5C
:10045000911D42E0660F771F881F991F4A95D1F7BB
:100460000895CF92DF92EF92FF92CF93DF936B01CB
:100470007C010E940E02EB01C114D104E104F104DD
:1004800089F00E9472030E940E026C1B7D0B683E75
:10049000734090F381E0C81AD108E108F108C8510F
:1004A000DC4FEACFDF91CF91FF90EF90DF90CF90BC
:1004B0000895789484B5826084BD84B5816084BDDC
:1004C00085B5826085BD85B5816085BDEEE6F0E0CD
:1004D000808181608083E1E8F0E010828081826029
:1004E0008083808181608083E0E8F0E080818160AA
:1004F0008083E1EBF0E0808184608083E0EBF0E0DA
:10050000808181608083EAE7F0E08081846080837D
:100510008081826080838081816080838081806827
:1005200080831092C10008958E3008F08E5087703D
:100530002091000190E4299F90011124822B809347
:100540007C0080917A00806480937A0080917A00A8
:1005500086FDFCCF809178002091790090E0922B6D
:100560000895833081F028F4813099F08230A1F031
:1005700008958730A9F08830B9F08430D1F48091A3
:1005800080008F7D03C0809180008F7780938000F2
:10059000089584B58F7702C084B58F7D84BD08959A
:1005A0008091B0008F7703C08091B0008F7D8093E1
:1005B000B0000895CF93DF9390E0FC01E458FF4F23
:1005C0002491FC01E057FF4F8491882349F190E08A
:1005D000880F991FFC01E854FF4FA591B4918255F3
:1005E0009F4FFC01C591D4919FB7611108C0F89449
:1005F0008C91209582238C93888182230AC062305B
:1006000051F4F8948C91322F309583238C93888108
:10061000822B888304C0F8948C91822B8C939FBF8B
:10062000DF91CF9108950F931F93CF93DF931F9284
:10063000CDB7DEB7282F30E0F901E859FF4F84919C
:10064000F901E458FF4F1491F901E057FF4F04916D
:100650000023C9F0882321F069830E94B1026981D7
:10066000E02FF0E0EE0FFF1FE255FF4FA591B49190
:100670009FB7F8948C91611103C01095812301C03C
:10068000812B8C939FBF0F90DF91CF911F910F9182
:100690000895CF93DF93282F30E0F901E859FF4FF9
:1006A0008491F901E458FF4FD491F901E057FF4FCD
:1006B000C491CC2391F081110E94B102EC2FF0E0A3
:1006C000EE0FFF1FEC55FF4FA591B4912C912D23F8
:1006D00081E090E021F480E002C080E090E0DF91D2
:1006E000CF910895089597FB072E16F4009407D034
:1006F00077FD09D00E94A90307FC05D03EF4909530
:1007000081959F4F0895709561957F4F0895A1E25F
:100710001A2EAA1BBB1BFD010DC0AA1FBB1FEE1F7B
:10072000FF1FA217B307E407F50720F0A21BB30BC6
:10073000E40BF50B661F771F881F991F1A9469F742
:1007400060957095809590959B01AC01BD01CF019E
:100750000895AA1BBB1B51E107C0AA1FBB1FA61708
:10076000B70710F0A61BB70B881F991F5A95A9F75A
:0E07700080959095BC01CD010895F894FFCFBF
:10077E00010409070101070703030708030308081B
:10078E00010108090101090904080401020201031B
:10079E000202030304040305040405050606050707
:1007AE0006060707080807090808090907070905C3
:1007BE0007070505030305010303010104040107EF
:1007CE0004040707020207040202040406060408D2
:1007DE0006060808050508020505020209090206B3
:1007EE00090906060303060903030909050509019C
:1007FE0005050101060601020606020208080204AA
:02080E000800E0
:00000001FF
