:100000000C945D000C9485000C9485000C94850084
:100010000C9485000C9485000C9485000C9485004C
:100020000C9485000C9485000C9485000C9485003C
:100030000C9485000C9485000C9485000C9485002C
:100040000C94B5040C9485000C94D6020C9408030F
:100050000C9485000C9485000C9485000C9485000C
:100060000C9485000C94850000000008000201003B
:100070000003040700000000000000000102040863
:100080001020408001020408102001020408102002
:10009000040404040404040402020202020203032E
:1000A0000303030300000000250028002B000000CC
:1000B0000000240027002A00380311241FBECFEFC0
:1000C000D8E0DEBFCDBF11E0A0E0B1E0E2EEFCE0A1
:1000D00002C005900D92AE3BB107D9F722E0AEEB1E
:1000E000B1E001C01D92A636B207E1F710E0CAEBFD
:1000F000D0E004C02297FE010E946B06C83BD107E6
:10010000C9F70E94A6040C946F060C94000026E028
:1001100040E855E260E070E080EC91E00C947402FD
:1001200080E00E9491052091BE01213049F018F035
:100130002230A1F00895883C91059CF481E00BC029
:100140008D3221E092071CF01092BE010895843692
:1001500091053CF482E08093BE010895893C9105AD
:100160006CF70895CF93DF93C82FD0E0CC0FDD1F3D
:10017000CE5FDE4F60E088810E94D70560E0898114
:10018000DF91CF910C94D705CF93C82F80910101B7
:100190000E94B200C0930101CF910895CF93C82F60
:1001A000809100010E94B200C0930001CF91089598
:1001B000CF92DF92EF92FF92CF93DF930E94FF04E2
:1001C0006B017C0120E63AEE40E050E00E944706D9
:1001D000CA01B9012CE330E040E050E00E9447063C
:1001E000C62FC701B60120E83EEE46E350E00E946C
:1001F0004706CA01B9012CE030E040E050E00E941F
:1002000047066B017C01809101018C1781F063E945
:1002100071E080EC91E00E94B9034AE050E06C2F5D
:1002200080EC91E00E948E048C2F0E94C400E601B5
:10023000EC968091000190E0C817D907B9F069E900
:1002400071E080EC91E00E94B9034AE050E0BE0109
:1002500080EC91E00E9469048CE38C0DDF91CF91DA
:10026000FF90EF90DF90CF900C94CE00DF91CF9174
:10027000FF90EF90DF90CF900895CF93DF93C82F3A
:10028000D0E0CC0FDD1FCE5FDE4F61E088810E94A1
:10029000D70561E08981DF91CF910C94D705CF9389
:1002A000DF93C82F0E943D01D0E0CC0FDD1FCE5F51
:1002B000DE4F61E088810E94100660E08981DF9155
:1002C000CF910C9410068091BF01882371F080912A
:1002D00000010E94B2006091BE0170E080E090E0F9
:1002E0000E942E05809101010DC0809101010E94A4
:1002F000B2006091BE0170E080E090E00E942E05A7
:10030000809100010E944F018091BF0191E08927F7
:100310008093BF0108950E94D8000E9490000C9421
:100320006301FC01818D228D90E0805C9F4F821BD8
:1003300091098F7399270895FC01918D828D9817EB
:1003400031F0828DE80FF11D858D90E008958FEFDB
:100350009FEF0895FC01918D828D981761F0828D39
:10036000DF01A80FB11D5D968C91928D9F5F9F73E9
:10037000928F90E008958FEF9FEF08958EE293E0C3
:10038000892B49F080E090E0892B29F00E942E0310
:1003900081110C9400000895FC01848DDF01A80FE9
:1003A000B11DA35ABF4F2C91848D90E001968F739D
:1003B0009927848FA689B7892C93A089B1898C91BC
:1003C00080648C93938D848D981306C00288F38982
:1003D000E02D80818F7D80830895CF93DF93EC01A2
:1003E000888D8823C9F0EA89FB89808185FD05C055
:1003F000A889B9898C9186FD0FC00FB607FCF5CF8F
:10040000808185FFF2CFA889B9898C9185FFEDCFD6
:10041000CE010E94CC01E7CFDF91CF910895CF921A
:10042000DF92FF920F931F93CF93DF931F92CDB76D
:10043000DEB76C0181E0D60158968C9358975B9695
:100440009C915B975C968C915C97981307C0509633
:10045000ED91FC915197808185FD2EC0F601038DB1
:1004600010E00F5F1F4F0F731127F02EF601848DE0
:10047000F81211C00FB607FCF9CFD6015096ED91D6
:10048000FC915197808185FFF1CFC60169830E945D
:10049000CC016981EBCF838DE80FF11DE35AFF4F4B
:1004A0006083D6015B960C935B975296ED91FC911D
:1004B0005397808180620CC0D6015696ED91FC91D5
:1004C000579760835096ED91FC915197808180649D
:1004D000808381E090E00F90DF91CF911F910F9189
:1004E000FF90DF90CF900895BF92CF92DF92EF926E
:1004F000FF92CF93DF93EC016A017B01B22EE88972
:10050000F98982E08083411581EE58076105710504
:10051000A1F060E079E08DE390E0A70196010E94F0
:10052000470621503109410951095695479537959C
:100530002795211580E1380798F0E889F98910821C
:1005400060E874E88EE190E0A70196010E944706FA
:1005500021503109410951095695479537952795FD
:10056000EC85FD853083EE85FF852083188EEC8930
:10057000FD89B082EA89FB89808180618083EA8974
:10058000FB89808188608083EA89FB89808180681B
:100590008083EA89FB8980818F7D8083DF91CF9181
:1005A000FF90EF90DF90CF90BF9008951F920F9231
:1005B0000FB60F9211242F938F939F93EF93FF9376
:1005C000E091D001F091D1018081E091D601F091CC
:1005D000D70182FD12C090818091D9018F5F8F7306
:1005E0002091DA01821751F0E091D901F0E0E05456
:1005F000FE4F958F8093D90101C08081FF91EF91CB
:100600009F918F912F910F900FBE0F901F90189573
:100610001F920F920FB60F9211242F933F934F9377
:100620005F936F937F938F939F93AF93BF93EF935A
:10063000FF9380EC91E00E94CC01FF91EF91BF917C
:10064000AF919F918F917F916F915F914F913F916A
:100650002F910F900FBE0F901F90189580EC91E096
:100660000E94910121E0892B09F420E0822F089556
:100670001092C3011092C20188EE93E0A0E0B0E0B6
:100680008093C4019093C501A093C601B093C701A4
:1006900081EA91E09093C1018093C00185EC90E0E4
:1006A0009093CD018093CC0184EC90E09093CF01A6
:1006B0008093CE0180EC90E09093D1018093D001A3
:1006C00081EC90E09093D3018093D20182EC90E092
:1006D0009093D5018093D40186EC90E09093D7015C
:1006E0008093D6011092D9011092DA011092DB01A9
:1006F0001092DC010895CF92DF92EF92FF920F9358
:100700001F93CF93DF936C017A01EB01E60EF71E86
:1007100000E010E0CE15DF0561F06991D601ED91A2
:10072000FC910190F081E02DC6010995080F191F79
:10073000F1CFC801DF91CF911F910F91FF90EF9002
:10074000DF90CF9008956115710581F0DB010D9068
:100750000020E9F7AD0141505109461B570BDC0160
:10076000ED91FC910280F381E02D099480E090E00E
:1007700008950C94A303DC01ED91FC910190F081AC
:10078000E02D09946DEA71E00C94A3038F929F927F
:10079000AF92BF92CF92DF92EF92FF920F931F938F
:1007A000CF93DF93CDB7DEB7A1970FB6F894DEBF36
:1007B0000FBECDBF7C01C42EE52FCB01D22E19A2D6
:1007C00021E02D1510F02AE0D22E8E010F5D1F4F73
:1007D0008D2C912CA12CB12C6C2D7E2FA501940178
:1007E0000E9447068C2DD29E8019112401501109B8
:1007F0008A3014F4805D01C0895CF8018083211582
:1008000031054105510521F0C22EE32FCA01E4CF85
:10081000B801C7010E94A303A1960FB6F894DEBFEA
:100820000FBECDBFDF91CF911F910F91FF90EF9041
:10083000DF90CF90BF90AF909F908F900895CF9210
:10084000DF92EF92FF920F931F93CF93DF93EC0110
:100850006A017B012115310579F4E881F981019064
:10086000F081E02D642FDF91CF911F910F91FF90C8
:10087000EF90DF90CF9009942A303105E9F477FFAB
:100880001AC06DE20E94BB038C0144275527BA01B0
:100890004C195D096E097F092AE0CE010E94C6034A
:1008A000800F911FDF91CF911F910F91FF90EF90DB
:1008B000DF90CF9008952AE0B701A601CE01DF9125
:1008C000CF911F910F91FF90EF90DF90CF900C94FC
:1008D000C6030F931F93CF93DF93EC019A01AB01F3
:1008E000662757FD6095762F0E941F048C01CE016C
:1008F0000E94C203800F911FDF91CF911F910F9132
:1009000008952115310541F4DC01ED91FC91019030
:10091000F081E02D642F09940C94C6030F931F936C
:10092000CF93DF93EC019A01462F50E060E070E036
:100930000E9481048C01CE010E94C203800F911F8E
:10094000DF91CF911F910F91089508950E94560550
:100950000E94A5040E948700CEEBD1E00E948B018B
:100960002097E1F30E94BE01F9CF1F920F920FB6BC
:100970000F9211242F933F938F939F93AF93BF9325
:1009800080915E0290915F02A0916002B09161023D
:1009900030915D0223E0230F2D3720F40196A11D35
:1009A000B11D05C026E8230F0296A11DB11D20939D
:1009B0005D0280935E0290935F02A0936002B09309
:1009C00061028091620290916302A0916402B091F1
:1009D00065020196A11DB11D80936202909363028E
:1009E000A0936402B0936502BF91AF919F918F91E4
:1009F0003F912F910F900FBE0F901F9018952FB71A
:100A0000F89460915E0270915F0280916002909113
:100A100061022FBF08953FB7F894809162029091D0
:100A20006302A0916402B091650226B5A89B05C03F
:100A30002F3F19F00196A11DB11D3FBF6627782FEA
:100A4000892F9A2F620F711D811D911D42E0660F43
:100A5000771F881F991F4A95D1F70895CF92DF928B
:100A6000EF92FF92CF93DF936B017C010E940B0505
:100A7000EB01C114D104E104F10489F00E9446069F
:100A80000E940B056C1B7D0B683E734090F381E068
:100A9000C81AD108E108F108C851DC4FEACFDF914C
:100AA000CF91FF90EF90DF90CF900895789484B528
:100AB000826084BD84B5816084BD85B5826085BD5A
:100AC00085B5816085BDEEE6F0E080818160808340
:100AD000E1E8F0E010828081826080838081816023
:100AE0008083E0E8F0E0808181608083E1EBF0E0EA
:100AF000808184608083E0EBF0E08081816080838E
:100B0000EAE7F0E080818460808380818260808376
:100B10008081816080838081806880831092C100A1
:100B200008958E3008F08E5087702091920190E4E5
:100B3000299F90011124822B80937C0080917A0060
:100B4000806480937A0080917A0086FDFCCF80914A
:100B500078002091790090E0922B0895833081F005
:100B600028F4813099F08230A1F008958730A9F0FF
:100B70008830B9F08430D1F4809180008F7D03C03B
:100B8000809180008F7780938000089584B58F775F
:100B900002C084B58F7D84BD08958091B0008F77A9
:100BA00003C08091B0008F7D8093B0000895CF93F3
:100BB000DF9390E0FC01E458FF4F2491FC01E057E3
:100BC000FF4F8491882349F190E0880F991FFC0121
:100BD000E255FF4FA591B4918C559F4FFC01C591F3
:100BE000D4919FB7611108C0F8948C91209582230D
:100BF0008C93888182230AC0623051F4F8948C91DE
:100C0000322F309583238C938881822B888304C074
:100C1000F8948C91822B8C939FBFDF91CF91089594
:100C20000F931F93CF93DF931F92CDB7DEB7282F7B
:100C300030E0F901E859FF4F8491F901E458FF4F82
:100C40001491F901E057FF4F04910023C9F0882364
:100C500021F069830E94AE056981E02FF0E0EE0F7C
:100C6000FF1FEC55FF4FA591B4919FB7F8948C915D
:100C7000611103C01095812301C0812B8C939FBF0C
:100C80000F90DF91CF911F910F9108950895A1E2E8
:100C90001A2EAA1BBB1BFD010DC0AA1FBB1FEE1FF6
:100CA000FF1FA217B307E407F50720F0A21BB30B41
:100CB000E40BF50B661F771F881F991F1A9469F7BD
:100CC00060957095809590959B01AC01BD01CF0119
:100CD0000895EE0FFF1F0590F491E02D0994F8940C
:020CE000FFCF44
:100CE200FFFF0102020103020203030404030504DD
:100CF200040505060605070606070708080709088A
:100D02000809090707090507070505030305010384
:100D12000301010404010704040707020207040295
:100D2200020404060604080606080805050802056A
:100D32000502020909020609090606030306090358
:100D42000309090505090105050101060601020657
:100D52000602020808020408080407010107070343
:100D6200030708030308080101080901010909042E
:100D72000409016D696E3A2000683A200000000003
:100D8200000F027B039101AA019C01ED010D0A00F3
:0E0D92006E616E00696E66006F7666002E0060
:00000001FF
